{
	"data": {
		"bytecode": {
			"linkReferences": {},
			"object": "61010060405234801561001157600080fd5b50604051610ee7380380610ee7833981810160405260c081101561003457600080fd5b508051602082015160408301516060840151608085015160a0909501519394929391929091818484600160ff8216116100b4576040805162461bcd60e51b815260206004820181905260248201527f536c6964696e6757696e646f774f7261636c653a204752414e554c4152495459604482015290519081900360640190fd5b8160ff82168082816100c257fe5b0460e081905202146101055760405162461bcd60e51b8152600401808060200182810382526030815260200180610eb76030913960400191505060405180910390fd5b6001600160601b031960609390931b9290921660805260a0527fff0000000000000000000000000000000000000000000000000000000000000060f89190911b1660c052600280546001600160a01b039687166001600160a01b031991821617909155600180549790961696169590951790935550505060035560805160601c60a05160c05160f81c60e051610ccb6101ec600039806102da528061055c52806105af528061060f5250806101f152806104b952806105db5280610703525080610215528061027b52806102fe52508061023f528061044b52806104745250610ccb6000f3fe608060405234801561001057600080fd5b50600436106100935760003560e01c8063bfcc8e4211610066578063bfcc8e421461012c578063c45a015514610176578063c640752d1461019a578063dbaad32f146101ca578063e4463eb2146101e757610093565b8063556f0dc7146100985780638a14117a146100b65780638c86f1e4146100d0578063b3596f0714610106575b600080fd5b6100a06101ef565b6040805160ff9092168252519081900360200190f35b6100be610213565b60408051918252519081900360200190f35b6100be600480360360608110156100e657600080fd5b506001600160a01b03813581169160208101359160409091013516610237565b6100be6004803603602081101561011c57600080fd5b50356001600160a01b03166103ca565b6101586004803603604081101561014257600080fd5b506001600160a01b03813516906020013561040a565b60408051938452602084019290925282820152519081900360600190f35b61017e610449565b604080516001600160a01b039092168252519081900360200190f35b6101c8600480360360408110156101b057600080fd5b506001600160a01b038135811691602001351661046d565b005b6100a0600480360360208110156101e057600080fd5b50356105aa565b6100be61060d565b7f000000000000000000000000000000000000000000000000000000000000000081565b7f000000000000000000000000000000000000000000000000000000000000000081565b6000806102657f00000000000000000000000000000000000000000000000000000000000000008685610631565b90506000610272826106f1565b805490915042037f00000000000000000000000000000000000000000000000000000000000000008111156102d85760405162461bcd60e51b8152600401808060200182810382526033815260200180610bef6033913960400191505060405180910390fd5b7f00000000000000000000000000000000000000000000000000000000000000006002027f00000000000000000000000000000000000000000000000000000000000000000381101561035c5760405162461bcd60e51b815260040180806020018281038252602c815260200180610c22602c913960400191505060405180910390fd5b6000806103688561077f565b509150915060006103798a8961094e565b509050896001600160a01b0316816001600160a01b031614156103b3576103a6856001015484868c610a2c565b96505050505050506103c3565b6103a6856002015483868c610a2c565b9392505050565b6001546000906001600160a01b038381169116146103e757600080fd5b600354600254600a9190910a906103c390849083906001600160a01b0316610237565b6000602052816000526040600020818154811061042357fe5b600091825260209091206003909102018054600182015460029092015490935090915083565b7f000000000000000000000000000000000000000000000000000000000000000081565b600061049a7f00000000000000000000000000000000000000000000000000000000000000008484610631565b6001600160a01b0381166000908152602081905260409020549091505b7f000000000000000000000000000000000000000000000000000000000000000060ff1681101561050b576001600160a01b03821660009081526020819052604081208054600190810182559152016104b7565b506000610517426105aa565b6001600160a01b03831660009081526020819052604081208054929350909160ff841690811061054357fe5b60009182526020909120600390910201805490915042037f00000000000000000000000000000000000000000000000000000000000000008111156105a25760008061058e8661077f565b504286556001860191909155600285015550505b505050505050565b6000807f000000000000000000000000000000000000000000000000000000000000000083816105d657fe5b0490507f000000000000000000000000000000000000000000000000000000000000000060ff16818161060557fe5b069392505050565b7f000000000000000000000000000000000000000000000000000000000000000081565b6000806000610640858561094e565b604080516bffffffffffffffffffffffff19606094851b811660208084019190915293851b81166034830152825160288184030181526048830184528051908501206001600160f81b031960688401529a90941b9093166069840152607d8301989098527f96e8ac4277198ff8b6f785478aa9a39f403cb768dd02cbee326c3e7da348845f609d808401919091528851808403909101815260bd909201909752805196019590952095945050505050565b6000806106fd426105aa565b905060007f000000000000000000000000000000000000000000000000000000000000000060ff168260010160ff168161073357fe5b069050600080856001600160a01b03166001600160a01b031681526020019081526020016000208160ff168154811061076857fe5b906000526020600020906003020192505050919050565b600080600061078c610a8a565b9050836001600160a01b0316635909c0d56040518163ffffffff1660e01b815260040160206040518083038186803b1580156107c757600080fd5b505afa1580156107db573d6000803e3d6000fd5b505050506040513d60208110156107f157600080fd5b505160408051635a3d549360e01b815290519194506001600160a01b03861691635a3d549391600480820192602092909190829003018186803b15801561083757600080fd5b505afa15801561084b573d6000803e3d6000fd5b505050506040513d602081101561086157600080fd5b505160408051630240bc6b60e21b81529051919350600091829182916001600160a01b03891691630902f1ac916004808301926060929190829003018186803b1580156108ad57600080fd5b505afa1580156108c1573d6000803e3d6000fd5b505050506040513d60608110156108d757600080fd5b5080516020820151604090920151909450909250905063ffffffff808216908516146109445780840363ffffffff81166109118486610a94565b516001600160e01b031602969096019563ffffffff81166109328585610a94565b516001600160e01b0316029590950194505b5050509193909250565b600080826001600160a01b0316846001600160a01b031614156109a25760405162461bcd60e51b8152600401808060200182810382526025815260200180610c4e6025913960400191505060405180910390fd5b826001600160a01b0316846001600160a01b0316106109c25782846109c5565b83835b90925090506001600160a01b038216610a25576040805162461bcd60e51b815260206004820152601e60248201527f556e697377617056324c6962726172793a205a45524f5f414444524553530000604482015290519081900360640190fd5b9250929050565b6000610a36610bc9565b60405180602001604052808588880381610a4c57fe5b046001600160e01b031690529050610a6c610a678285610b44565b610bc2565b71ffffffffffffffffffffffffffffffffffff169695505050505050565b63ffffffff421690565b610a9c610bc9565b6000826001600160701b031611610afa576040805162461bcd60e51b815260206004820152601760248201527f4669786564506f696e743a204449565f42595f5a45524f000000000000000000604482015290519081900360640190fd5b6040805160208101909152806001600160701b0384166dffffffffffffffffffffffffffff60701b607087901b1681610b2f57fe5b046001600160e01b0316815250905092915050565b610b4c610bdb565b6000821580610b7257505082516001600160e01b031682810290838281610b6f57fe5b04145b610bad5760405162461bcd60e51b8152600401808060200182810382526023815260200180610c736023913960400191505060405180910390fd5b60408051602081019091529081529392505050565b5160701c90565b60408051602081019091526000815290565b604051806020016040528060008152509056fe536c6964696e6757696e646f774f7261636c653a204d495353494e475f484953544f524943414c5f4f42534552564154494f4e536c6964696e6757696e646f774f7261636c653a20554e45585045435445445f54494d455f454c4150534544556e697377617056324c6962726172793a204944454e544943414c5f4144445245535345534669786564506f696e743a204d554c5449504c49434154494f4e5f4f564552464c4f57a26469706673582212208d1eabdce5b2067fd137eb119ea670308034d0426f72030f8d718889d06535b864736f6c634300060c0033536c6964696e6757696e646f774f7261636c653a2057494e444f575f4e4f545f4556454e4c595f444956495349424c45",
			"opcodes": "PUSH2 0x100 PUSH1 0x40 MSTORE CALLVALUE DUP1 ISZERO PUSH2 0x11 JUMPI PUSH1 0x0 DUP1 REVERT JUMPDEST POP PUSH1 0x40 MLOAD PUSH2 0xEE7 CODESIZE SUB DUP1 PUSH2 0xEE7 DUP4 CODECOPY DUP2 DUP2 ADD PUSH1 0x40 MSTORE PUSH1 0xC0 DUP2 LT ISZERO PUSH2 0x34 JUMPI PUSH1 0x0 DUP1 REVERT JUMPDEST POP DUP1 MLOAD PUSH1 0x20 DUP3 ADD MLOAD PUSH1 0x40 DUP4 ADD MLOAD PUSH1 0x60 DUP5 ADD MLOAD PUSH1 0x80 DUP6 ADD MLOAD PUSH1 0xA0 SWAP1 SWAP6 ADD MLOAD SWAP4 SWAP5 SWAP3 SWAP4 SWAP2 SWAP3 SWAP1 SWAP2 DUP2 DUP5 DUP5 PUSH1 0x1 PUSH1 0xFF DUP3 AND GT PUSH2 0xB4 JUMPI PUSH1 0x40 DUP1 MLOAD PUSH3 0x461BCD PUSH1 0xE5 SHL DUP2 MSTORE PUSH1 0x20 PUSH1 0x4 DUP3 ADD DUP2 SWAP1 MSTORE PUSH1 0x24 DUP3 ADD MSTORE PUSH32 0x536C6964696E6757696E646F774F7261636C653A204752414E554C4152495459 PUSH1 0x44 DUP3 ADD MSTORE SWAP1 MLOAD SWAP1 DUP2 SWAP1 SUB PUSH1 0x64 ADD SWAP1 REVERT JUMPDEST DUP2 PUSH1 0xFF DUP3 AND DUP1 DUP3 DUP2 PUSH2 0xC2 JUMPI INVALID JUMPDEST DIV PUSH1 0xE0 DUP2 SWAP1 MSTORE MUL EQ PUSH2 0x105 JUMPI PUSH1 0x40 MLOAD PUSH3 0x461BCD PUSH1 0xE5 SHL DUP2 MSTORE PUSH1 0x4 ADD DUP1 DUP1 PUSH1 0x20 ADD DUP3 DUP2 SUB DUP3 MSTORE PUSH1 0x30 DUP2 MSTORE PUSH1 0x20 ADD DUP1 PUSH2 0xEB7 PUSH1 0x30 SWAP2 CODECOPY PUSH1 0x40 ADD SWAP2 POP POP PUSH1 0x40 MLOAD DUP1 SWAP2 SUB SWAP1 REVERT JUMPDEST PUSH1 0x1 PUSH1 0x1 PUSH1 0x60 SHL SUB NOT PUSH1 0x60 SWAP4 SWAP1 SWAP4 SHL SWAP3 SWAP1 SWAP3 AND PUSH1 0x80 MSTORE PUSH1 0xA0 MSTORE PUSH32 0xFF00000000000000000000000000000000000000000000000000000000000000 PUSH1 0xF8 SWAP2 SWAP1 SWAP2 SHL AND PUSH1 0xC0 MSTORE PUSH1 0x2 DUP1 SLOAD PUSH1 0x1 PUSH1 0x1 PUSH1 0xA0 SHL SUB SWAP7 DUP8 AND PUSH1 0x1 PUSH1 0x1 PUSH1 0xA0 SHL SUB NOT SWAP2 DUP3 AND OR SWAP1 SWAP2 SSTORE PUSH1 0x1 DUP1 SLOAD SWAP8 SWAP1 SWAP7 AND SWAP7 AND SWAP6 SWAP1 SWAP6 OR SWAP1 SWAP4 SSTORE POP POP POP PUSH1 0x3 SSTORE PUSH1 0x80 MLOAD PUSH1 0x60 SHR PUSH1 0xA0 MLOAD PUSH1 0xC0 MLOAD PUSH1 0xF8 SHR PUSH1 0xE0 MLOAD PUSH2 0xCCB PUSH2 0x1EC PUSH1 0x0 CODECOPY DUP1 PUSH2 0x2DA MSTORE DUP1 PUSH2 0x55C MSTORE DUP1 PUSH2 0x5AF MSTORE DUP1 PUSH2 0x60F MSTORE POP DUP1 PUSH2 0x1F1 MSTORE DUP1 PUSH2 0x4B9 MSTORE DUP1 PUSH2 0x5DB MSTORE DUP1 PUSH2 0x703 MSTORE POP DUP1 PUSH2 0x215 MSTORE DUP1 PUSH2 0x27B MSTORE DUP1 PUSH2 0x2FE MSTORE POP DUP1 PUSH2 0x23F MSTORE DUP1 PUSH2 0x44B MSTORE DUP1 PUSH2 0x474 MSTORE POP PUSH2 0xCCB PUSH1 0x0 RETURN INVALID PUSH1 0x80 PUSH1 0x40 MSTORE CALLVALUE DUP1 ISZERO PUSH2 0x10 JUMPI PUSH1 0x0 DUP1 REVERT JUMPDEST POP PUSH1 0x4 CALLDATASIZE LT PUSH2 0x93 JUMPI PUSH1 0x0 CALLDATALOAD PUSH1 0xE0 SHR DUP1 PUSH4 0xBFCC8E42 GT PUSH2 0x66 JUMPI DUP1 PUSH4 0xBFCC8E42 EQ PUSH2 0x12C JUMPI DUP1 PUSH4 0xC45A0155 EQ PUSH2 0x176 JUMPI DUP1 PUSH4 0xC640752D EQ PUSH2 0x19A JUMPI DUP1 PUSH4 0xDBAAD32F EQ PUSH2 0x1CA JUMPI DUP1 PUSH4 0xE4463EB2 EQ PUSH2 0x1E7 JUMPI PUSH2 0x93 JUMP JUMPDEST DUP1 PUSH4 0x556F0DC7 EQ PUSH2 0x98 JUMPI DUP1 PUSH4 0x8A14117A EQ PUSH2 0xB6 JUMPI DUP1 PUSH4 0x8C86F1E4 EQ PUSH2 0xD0 JUMPI DUP1 PUSH4 0xB3596F07 EQ PUSH2 0x106 JUMPI JUMPDEST PUSH1 0x0 DUP1 REVERT JUMPDEST PUSH2 0xA0 PUSH2 0x1EF JUMP JUMPDEST PUSH1 0x40 DUP1 MLOAD PUSH1 0xFF SWAP1 SWAP3 AND DUP3 MSTORE MLOAD SWAP1 DUP2 SWAP1 SUB PUSH1 0x20 ADD SWAP1 RETURN JUMPDEST PUSH2 0xBE PUSH2 0x213 JUMP JUMPDEST PUSH1 0x40 DUP1 MLOAD SWAP2 DUP3 MSTORE MLOAD SWAP1 DUP2 SWAP1 SUB PUSH1 0x20 ADD SWAP1 RETURN JUMPDEST PUSH2 0xBE PUSH1 0x4 DUP1 CALLDATASIZE SUB PUSH1 0x60 DUP2 LT ISZERO PUSH2 0xE6 JUMPI PUSH1 0x0 DUP1 REVERT JUMPDEST POP PUSH1 0x1 PUSH1 0x1 PUSH1 0xA0 SHL SUB DUP2 CALLDATALOAD DUP2 AND SWAP2 PUSH1 0x20 DUP2 ADD CALLDATALOAD SWAP2 PUSH1 0x40 SWAP1 SWAP2 ADD CALLDATALOAD AND PUSH2 0x237 JUMP JUMPDEST PUSH2 0xBE PUSH1 0x4 DUP1 CALLDATASIZE SUB PUSH1 0x20 DUP2 LT ISZERO PUSH2 0x11C JUMPI PUSH1 0x0 DUP1 REVERT JUMPDEST POP CALLDATALOAD PUSH1 0x1 PUSH1 0x1 PUSH1 0xA0 SHL SUB AND PUSH2 0x3CA JUMP JUMPDEST PUSH2 0x158 PUSH1 0x4 DUP1 CALLDATASIZE SUB PUSH1 0x40 DUP2 LT ISZERO PUSH2 0x142 JUMPI PUSH1 0x0 DUP1 REVERT JUMPDEST POP PUSH1 0x1 PUSH1 0x1 PUSH1 0xA0 SHL SUB DUP2 CALLDATALOAD AND SWAP1 PUSH1 0x20 ADD CALLDATALOAD PUSH2 0x40A JUMP JUMPDEST PUSH1 0x40 DUP1 MLOAD SWAP4 DUP5 MSTORE PUSH1 0x20 DUP5 ADD SWAP3 SWAP1 SWAP3 MSTORE DUP3 DUP3 ADD MSTORE MLOAD SWAP1 DUP2 SWAP1 SUB PUSH1 0x60 ADD SWAP1 RETURN JUMPDEST PUSH2 0x17E PUSH2 0x449 JUMP JUMPDEST PUSH1 0x40 DUP1 MLOAD PUSH1 0x1 PUSH1 0x1 PUSH1 0xA0 SHL SUB SWAP1 SWAP3 AND DUP3 MSTORE MLOAD SWAP1 DUP2 SWAP1 SUB PUSH1 0x20 ADD SWAP1 RETURN JUMPDEST PUSH2 0x1C8 PUSH1 0x4 DUP1 CALLDATASIZE SUB PUSH1 0x40 DUP2 LT ISZERO PUSH2 0x1B0 JUMPI PUSH1 0x0 DUP1 REVERT JUMPDEST POP PUSH1 0x1 PUSH1 0x1 PUSH1 0xA0 SHL SUB DUP2 CALLDATALOAD DUP2 AND SWAP2 PUSH1 0x20 ADD CALLDATALOAD AND PUSH2 0x46D JUMP JUMPDEST STOP JUMPDEST PUSH2 0xA0 PUSH1 0x4 DUP1 CALLDATASIZE SUB PUSH1 0x20 DUP2 LT ISZERO PUSH2 0x1E0 JUMPI PUSH1 0x0 DUP1 REVERT JUMPDEST POP CALLDATALOAD PUSH2 0x5AA JUMP JUMPDEST PUSH2 0xBE PUSH2 0x60D JUMP JUMPDEST PUSH32 0x0 DUP2 JUMP JUMPDEST PUSH32 0x0 DUP2 JUMP JUMPDEST PUSH1 0x0 DUP1 PUSH2 0x265 PUSH32 0x0 DUP7 DUP6 PUSH2 0x631 JUMP JUMPDEST SWAP1 POP PUSH1 0x0 PUSH2 0x272 DUP3 PUSH2 0x6F1 JUMP JUMPDEST DUP1 SLOAD SWAP1 SWAP2 POP TIMESTAMP SUB PUSH32 0x0 DUP2 GT ISZERO PUSH2 0x2D8 JUMPI PUSH1 0x40 MLOAD PUSH3 0x461BCD PUSH1 0xE5 SHL DUP2 MSTORE PUSH1 0x4 ADD DUP1 DUP1 PUSH1 0x20 ADD DUP3 DUP2 SUB DUP3 MSTORE PUSH1 0x33 DUP2 MSTORE PUSH1 0x20 ADD DUP1 PUSH2 0xBEF PUSH1 0x33 SWAP2 CODECOPY PUSH1 0x40 ADD SWAP2 POP POP PUSH1 0x40 MLOAD DUP1 SWAP2 SUB SWAP1 REVERT JUMPDEST PUSH32 0x0 PUSH1 0x2 MUL PUSH32 0x0 SUB DUP2 LT ISZERO PUSH2 0x35C JUMPI PUSH1 0x40 MLOAD PUSH3 0x461BCD PUSH1 0xE5 SHL DUP2 MSTORE PUSH1 0x4 ADD DUP1 DUP1 PUSH1 0x20 ADD DUP3 DUP2 SUB DUP3 MSTORE PUSH1 0x2C DUP2 MSTORE PUSH1 0x20 ADD DUP1 PUSH2 0xC22 PUSH1 0x2C SWAP2 CODECOPY PUSH1 0x40 ADD SWAP2 POP POP PUSH1 0x40 MLOAD DUP1 SWAP2 SUB SWAP1 REVERT JUMPDEST PUSH1 0x0 DUP1 PUSH2 0x368 DUP6 PUSH2 0x77F JUMP JUMPDEST POP SWAP2 POP SWAP2 POP PUSH1 0x0 PUSH2 0x379 DUP11 DUP10 PUSH2 0x94E JUMP JUMPDEST POP SWAP1 POP DUP10 PUSH1 0x1 PUSH1 0x1 PUSH1 0xA0 SHL SUB AND DUP2 PUSH1 0x1 PUSH1 0x1 PUSH1 0xA0 SHL SUB AND EQ ISZERO PUSH2 0x3B3 JUMPI PUSH2 0x3A6 DUP6 PUSH1 0x1 ADD SLOAD DUP5 DUP7 DUP13 PUSH2 0xA2C JUMP JUMPDEST SWAP7 POP POP POP POP POP POP POP PUSH2 0x3C3 JUMP JUMPDEST PUSH2 0x3A6 DUP6 PUSH1 0x2 ADD SLOAD DUP4 DUP7 DUP13 PUSH2 0xA2C JUMP JUMPDEST SWAP4 SWAP3 POP POP POP JUMP JUMPDEST PUSH1 0x1 SLOAD PUSH1 0x0 SWAP1 PUSH1 0x1 PUSH1 0x1 PUSH1 0xA0 SHL SUB DUP4 DUP2 AND SWAP2 AND EQ PUSH2 0x3E7 JUMPI PUSH1 0x0 DUP1 REVERT JUMPDEST PUSH1 0x3 SLOAD PUSH1 0x2 SLOAD PUSH1 0xA SWAP2 SWAP1 SWAP2 EXP SWAP1 PUSH2 0x3C3 SWAP1 DUP5 SWAP1 DUP4 SWAP1 PUSH1 0x1 PUSH1 0x1 PUSH1 0xA0 SHL SUB AND PUSH2 0x237 JUMP JUMPDEST PUSH1 0x0 PUSH1 0x20 MSTORE DUP2 PUSH1 0x0 MSTORE PUSH1 0x40 PUSH1 0x0 KECCAK256 DUP2 DUP2 SLOAD DUP2 LT PUSH2 0x423 JUMPI INVALID JUMPDEST PUSH1 0x0 SWAP2 DUP3 MSTORE PUSH1 0x20 SWAP1 SWAP2 KECCAK256 PUSH1 0x3 SWAP1 SWAP2 MUL ADD DUP1 SLOAD PUSH1 0x1 DUP3 ADD SLOAD PUSH1 0x2 SWAP1 SWAP3 ADD SLOAD SWAP1 SWAP4 POP SWAP1 SWAP2 POP DUP4 JUMP JUMPDEST PUSH32 0x0 DUP2 JUMP JUMPDEST PUSH1 0x0 PUSH2 0x49A PUSH32 0x0 DUP5 DUP5 PUSH2 0x631 JUMP JUMPDEST PUSH1 0x1 PUSH1 0x1 PUSH1 0xA0 SHL SUB DUP2 AND PUSH1 0x0 SWAP1 DUP2 MSTORE PUSH1 0x20 DUP2 SWAP1 MSTORE PUSH1 0x40 SWAP1 KECCAK256 SLOAD SWAP1 SWAP2 POP JUMPDEST PUSH32 0x0 PUSH1 0xFF AND DUP2 LT ISZERO PUSH2 0x50B JUMPI PUSH1 0x1 PUSH1 0x1 PUSH1 0xA0 SHL SUB DUP3 AND PUSH1 0x0 SWAP1 DUP2 MSTORE PUSH1 0x20 DUP2 SWAP1 MSTORE PUSH1 0x40 DUP2 KECCAK256 DUP1 SLOAD PUSH1 0x1 SWAP1 DUP2 ADD DUP3 SSTORE SWAP2 MSTORE ADD PUSH2 0x4B7 JUMP JUMPDEST POP PUSH1 0x0 PUSH2 0x517 TIMESTAMP PUSH2 0x5AA JUMP JUMPDEST PUSH1 0x1 PUSH1 0x1 PUSH1 0xA0 SHL SUB DUP4 AND PUSH1 0x0 SWAP1 DUP2 MSTORE PUSH1 0x20 DUP2 SWAP1 MSTORE PUSH1 0x40 DUP2 KECCAK256 DUP1 SLOAD SWAP3 SWAP4 POP SWAP1 SWAP2 PUSH1 0xFF DUP5 AND SWAP1 DUP2 LT PUSH2 0x543 JUMPI INVALID JUMPDEST PUSH1 0x0 SWAP2 DUP3 MSTORE PUSH1 0x20 SWAP1 SWAP2 KECCAK256 PUSH1 0x3 SWAP1 SWAP2 MUL ADD DUP1 SLOAD SWAP1 SWAP2 POP TIMESTAMP SUB PUSH32 0x0 DUP2 GT ISZERO PUSH2 0x5A2 JUMPI PUSH1 0x0 DUP1 PUSH2 0x58E DUP7 PUSH2 0x77F JUMP JUMPDEST POP TIMESTAMP DUP7 SSTORE PUSH1 0x1 DUP7 ADD SWAP2 SWAP1 SWAP2 SSTORE PUSH1 0x2 DUP6 ADD SSTORE POP POP JUMPDEST POP POP POP POP POP POP JUMP JUMPDEST PUSH1 0x0 DUP1 PUSH32 0x0 DUP4 DUP2 PUSH2 0x5D6 JUMPI INVALID JUMPDEST DIV SWAP1 POP PUSH32 0x0 PUSH1 0xFF AND DUP2 DUP2 PUSH2 0x605 JUMPI INVALID JUMPDEST MOD SWAP4 SWAP3 POP POP POP JUMP JUMPDEST PUSH32 0x0 DUP2 JUMP JUMPDEST PUSH1 0x0 DUP1 PUSH1 0x0 PUSH2 0x640 DUP6 DUP6 PUSH2 0x94E JUMP JUMPDEST PUSH1 0x40 DUP1 MLOAD PUSH12 0xFFFFFFFFFFFFFFFFFFFFFFFF NOT PUSH1 0x60 SWAP5 DUP6 SHL DUP2 AND PUSH1 0x20 DUP1 DUP5 ADD SWAP2 SWAP1 SWAP2 MSTORE SWAP4 DUP6 SHL DUP2 AND PUSH1 0x34 DUP4 ADD MSTORE DUP3 MLOAD PUSH1 0x28 DUP2 DUP5 SUB ADD DUP2 MSTORE PUSH1 0x48 DUP4 ADD DUP5 MSTORE DUP1 MLOAD SWAP1 DUP6 ADD KECCAK256 PUSH1 0x1 PUSH1 0x1 PUSH1 0xF8 SHL SUB NOT PUSH1 0x68 DUP5 ADD MSTORE SWAP11 SWAP1 SWAP5 SHL SWAP1 SWAP4 AND PUSH1 0x69 DUP5 ADD MSTORE PUSH1 0x7D DUP4 ADD SWAP9 SWAP1 SWAP9 MSTORE PUSH32 0x96E8AC4277198FF8B6F785478AA9A39F403CB768DD02CBEE326C3E7DA348845F PUSH1 0x9D DUP1 DUP5 ADD SWAP2 SWAP1 SWAP2 MSTORE DUP9 MLOAD DUP1 DUP5 SUB SWAP1 SWAP2 ADD DUP2 MSTORE PUSH1 0xBD SWAP1 SWAP3 ADD SWAP1 SWAP8 MSTORE DUP1 MLOAD SWAP7 ADD SWAP6 SWAP1 SWAP6 KECCAK256 SWAP6 SWAP5 POP POP POP POP POP JUMP JUMPDEST PUSH1 0x0 DUP1 PUSH2 0x6FD TIMESTAMP PUSH2 0x5AA JUMP JUMPDEST SWAP1 POP PUSH1 0x0 PUSH32 0x0 PUSH1 0xFF AND DUP3 PUSH1 0x1 ADD PUSH1 0xFF AND DUP2 PUSH2 0x733 JUMPI INVALID JUMPDEST MOD SWAP1 POP PUSH1 0x0 DUP1 DUP6 PUSH1 0x1 PUSH1 0x1 PUSH1 0xA0 SHL SUB AND PUSH1 0x1 PUSH1 0x1 PUSH1 0xA0 SHL SUB AND DUP2 MSTORE PUSH1 0x20 ADD SWAP1 DUP2 MSTORE PUSH1 0x20 ADD PUSH1 0x0 KECCAK256 DUP2 PUSH1 0xFF AND DUP2 SLOAD DUP2 LT PUSH2 0x768 JUMPI INVALID JUMPDEST SWAP1 PUSH1 0x0 MSTORE PUSH1 0x20 PUSH1 0x0 KECCAK256 SWAP1 PUSH1 0x3 MUL ADD SWAP3 POP POP POP SWAP2 SWAP1 POP JUMP JUMPDEST PUSH1 0x0 DUP1 PUSH1 0x0 PUSH2 0x78C PUSH2 0xA8A JUMP JUMPDEST SWAP1 POP DUP4 PUSH1 0x1 PUSH1 0x1 PUSH1 0xA0 SHL SUB AND PUSH4 0x5909C0D5 PUSH1 0x40 MLOAD DUP2 PUSH4 0xFFFFFFFF AND PUSH1 0xE0 SHL DUP2 MSTORE PUSH1 0x4 ADD PUSH1 0x20 PUSH1 0x40 MLOAD DUP1 DUP4 SUB DUP2 DUP7 DUP1 EXTCODESIZE ISZERO DUP1 ISZERO PUSH2 0x7C7 JUMPI PUSH1 0x0 DUP1 REVERT JUMPDEST POP GAS STATICCALL ISZERO DUP1 ISZERO PUSH2 0x7DB JUMPI RETURNDATASIZE PUSH1 0x0 DUP1 RETURNDATACOPY RETURNDATASIZE PUSH1 0x0 REVERT JUMPDEST POP POP POP POP PUSH1 0x40 MLOAD RETURNDATASIZE PUSH1 0x20 DUP2 LT ISZERO PUSH2 0x7F1 JUMPI PUSH1 0x0 DUP1 REVERT JUMPDEST POP MLOAD PUSH1 0x40 DUP1 MLOAD PUSH4 0x5A3D5493 PUSH1 0xE0 SHL DUP2 MSTORE SWAP1 MLOAD SWAP2 SWAP5 POP PUSH1 0x1 PUSH1 0x1 PUSH1 0xA0 SHL SUB DUP7 AND SWAP2 PUSH4 0x5A3D5493 SWAP2 PUSH1 0x4 DUP1 DUP3 ADD SWAP3 PUSH1 0x20 SWAP3 SWAP1 SWAP2 SWAP1 DUP3 SWAP1 SUB ADD DUP2 DUP7 DUP1 EXTCODESIZE ISZERO DUP1 ISZERO PUSH2 0x837 JUMPI PUSH1 0x0 DUP1 REVERT JUMPDEST POP GAS STATICCALL ISZERO DUP1 ISZERO PUSH2 0x84B JUMPI RETURNDATASIZE PUSH1 0x0 DUP1 RETURNDATACOPY RETURNDATASIZE PUSH1 0x0 REVERT JUMPDEST POP POP POP POP PUSH1 0x40 MLOAD RETURNDATASIZE PUSH1 0x20 DUP2 LT ISZERO PUSH2 0x861 JUMPI PUSH1 0x0 DUP1 REVERT JUMPDEST POP MLOAD PUSH1 0x40 DUP1 MLOAD PUSH4 0x240BC6B PUSH1 0xE2 SHL DUP2 MSTORE SWAP1 MLOAD SWAP2 SWAP4 POP PUSH1 0x0 SWAP2 DUP3 SWAP2 DUP3 SWAP2 PUSH1 0x1 PUSH1 0x1 PUSH1 0xA0 SHL SUB DUP10 AND SWAP2 PUSH4 0x902F1AC SWAP2 PUSH1 0x4 DUP1 DUP4 ADD SWAP3 PUSH1 0x60 SWAP3 SWAP2 SWAP1 DUP3 SWAP1 SUB ADD DUP2 DUP7 DUP1 EXTCODESIZE ISZERO DUP1 ISZERO PUSH2 0x8AD JUMPI PUSH1 0x0 DUP1 REVERT JUMPDEST POP GAS STATICCALL ISZERO DUP1 ISZERO PUSH2 0x8C1 JUMPI RETURNDATASIZE PUSH1 0x0 DUP1 RETURNDATACOPY RETURNDATASIZE PUSH1 0x0 REVERT JUMPDEST POP POP POP POP PUSH1 0x40 MLOAD RETURNDATASIZE PUSH1 0x60 DUP2 LT ISZERO PUSH2 0x8D7 JUMPI PUSH1 0x0 DUP1 REVERT JUMPDEST POP DUP1 MLOAD PUSH1 0x20 DUP3 ADD MLOAD PUSH1 0x40 SWAP1 SWAP3 ADD MLOAD SWAP1 SWAP5 POP SWAP1 SWAP3 POP SWAP1 POP PUSH4 0xFFFFFFFF DUP1 DUP3 AND SWAP1 DUP6 AND EQ PUSH2 0x944 JUMPI DUP1 DUP5 SUB PUSH4 0xFFFFFFFF DUP2 AND PUSH2 0x911 DUP5 DUP7 PUSH2 0xA94 JUMP JUMPDEST MLOAD PUSH1 0x1 PUSH1 0x1 PUSH1 0xE0 SHL SUB AND MUL SWAP7 SWAP1 SWAP7 ADD SWAP6 PUSH4 0xFFFFFFFF DUP2 AND PUSH2 0x932 DUP6 DUP6 PUSH2 0xA94 JUMP JUMPDEST MLOAD PUSH1 0x1 PUSH1 0x1 PUSH1 0xE0 SHL SUB AND MUL SWAP6 SWAP1 SWAP6 ADD SWAP5 POP JUMPDEST POP POP POP SWAP2 SWAP4 SWAP1 SWAP3 POP JUMP JUMPDEST PUSH1 0x0 DUP1 DUP3 PUSH1 0x1 PUSH1 0x1 PUSH1 0xA0 SHL SUB AND DUP5 PUSH1 0x1 PUSH1 0x1 PUSH1 0xA0 SHL SUB AND EQ ISZERO PUSH2 0x9A2 JUMPI PUSH1 0x40 MLOAD PUSH3 0x461BCD PUSH1 0xE5 SHL DUP2 MSTORE PUSH1 0x4 ADD DUP1 DUP1 PUSH1 0x20 ADD DUP3 DUP2 SUB DUP3 MSTORE PUSH1 0x25 DUP2 MSTORE PUSH1 0x20 ADD DUP1 PUSH2 0xC4E PUSH1 0x25 SWAP2 CODECOPY PUSH1 0x40 ADD SWAP2 POP POP PUSH1 0x40 MLOAD DUP1 SWAP2 SUB SWAP1 REVERT JUMPDEST DUP3 PUSH1 0x1 PUSH1 0x1 PUSH1 0xA0 SHL SUB AND DUP5 PUSH1 0x1 PUSH1 0x1 PUSH1 0xA0 SHL SUB AND LT PUSH2 0x9C2 JUMPI DUP3 DUP5 PUSH2 0x9C5 JUMP JUMPDEST DUP4 DUP4 JUMPDEST SWAP1 SWAP3 POP SWAP1 POP PUSH1 0x1 PUSH1 0x1 PUSH1 0xA0 SHL SUB DUP3 AND PUSH2 0xA25 JUMPI PUSH1 0x40 DUP1 MLOAD PUSH3 0x461BCD PUSH1 0xE5 SHL DUP2 MSTORE PUSH1 0x20 PUSH1 0x4 DUP3 ADD MSTORE PUSH1 0x1E PUSH1 0x24 DUP3 ADD MSTORE PUSH32 0x556E697377617056324C6962726172793A205A45524F5F414444524553530000 PUSH1 0x44 DUP3 ADD MSTORE SWAP1 MLOAD SWAP1 DUP2 SWAP1 SUB PUSH1 0x64 ADD SWAP1 REVERT JUMPDEST SWAP3 POP SWAP3 SWAP1 POP JUMP JUMPDEST PUSH1 0x0 PUSH2 0xA36 PUSH2 0xBC9 JUMP JUMPDEST PUSH1 0x40 MLOAD DUP1 PUSH1 0x20 ADD PUSH1 0x40 MSTORE DUP1 DUP6 DUP9 DUP9 SUB DUP2 PUSH2 0xA4C JUMPI INVALID JUMPDEST DIV PUSH1 0x1 PUSH1 0x1 PUSH1 0xE0 SHL SUB AND SWAP1 MSTORE SWAP1 POP PUSH2 0xA6C PUSH2 0xA67 DUP3 DUP6 PUSH2 0xB44 JUMP JUMPDEST PUSH2 0xBC2 JUMP JUMPDEST PUSH18 0xFFFFFFFFFFFFFFFFFFFFFFFFFFFFFFFFFFFF AND SWAP7 SWAP6 POP POP POP POP POP POP JUMP JUMPDEST PUSH4 0xFFFFFFFF TIMESTAMP AND SWAP1 JUMP JUMPDEST PUSH2 0xA9C PUSH2 0xBC9 JUMP JUMPDEST PUSH1 0x0 DUP3 PUSH1 0x1 PUSH1 0x1 PUSH1 0x70 SHL SUB AND GT PUSH2 0xAFA JUMPI PUSH1 0x40 DUP1 MLOAD PUSH3 0x461BCD PUSH1 0xE5 SHL DUP2 MSTORE PUSH1 0x20 PUSH1 0x4 DUP3 ADD MSTORE PUSH1 0x17 PUSH1 0x24 DUP3 ADD MSTORE PUSH32 0x4669786564506F696E743A204449565F42595F5A45524F000000000000000000 PUSH1 0x44 DUP3 ADD MSTORE SWAP1 MLOAD SWAP1 DUP2 SWAP1 SUB PUSH1 0x64 ADD SWAP1 REVERT JUMPDEST PUSH1 0x40 DUP1 MLOAD PUSH1 0x20 DUP2 ADD SWAP1 SWAP2 MSTORE DUP1 PUSH1 0x1 PUSH1 0x1 PUSH1 0x70 SHL SUB DUP5 AND PUSH14 0xFFFFFFFFFFFFFFFFFFFFFFFFFFFF PUSH1 0x70 SHL PUSH1 0x70 DUP8 SWAP1 SHL AND DUP2 PUSH2 0xB2F JUMPI INVALID JUMPDEST DIV PUSH1 0x1 PUSH1 0x1 PUSH1 0xE0 SHL SUB AND DUP2 MSTORE POP SWAP1 POP SWAP3 SWAP2 POP POP JUMP JUMPDEST PUSH2 0xB4C PUSH2 0xBDB JUMP JUMPDEST PUSH1 0x0 DUP3 ISZERO DUP1 PUSH2 0xB72 JUMPI POP POP DUP3 MLOAD PUSH1 0x1 PUSH1 0x1 PUSH1 0xE0 SHL SUB AND DUP3 DUP2 MUL SWAP1 DUP4 DUP3 DUP2 PUSH2 0xB6F JUMPI INVALID JUMPDEST DIV EQ JUMPDEST PUSH2 0xBAD JUMPI PUSH1 0x40 MLOAD PUSH3 0x461BCD PUSH1 0xE5 SHL DUP2 MSTORE PUSH1 0x4 ADD DUP1 DUP1 PUSH1 0x20 ADD DUP3 DUP2 SUB DUP3 MSTORE PUSH1 0x23 DUP2 MSTORE PUSH1 0x20 ADD DUP1 PUSH2 0xC73 PUSH1 0x23 SWAP2 CODECOPY PUSH1 0x40 ADD SWAP2 POP POP PUSH1 0x40 MLOAD DUP1 SWAP2 SUB SWAP1 REVERT JUMPDEST PUSH1 0x40 DUP1 MLOAD PUSH1 0x20 DUP2 ADD SWAP1 SWAP2 MSTORE SWAP1 DUP2 MSTORE SWAP4 SWAP3 POP POP POP JUMP JUMPDEST MLOAD PUSH1 0x70 SHR SWAP1 JUMP JUMPDEST PUSH1 0x40 DUP1 MLOAD PUSH1 0x20 DUP2 ADD SWAP1 SWAP2 MSTORE PUSH1 0x0 DUP2 MSTORE SWAP1 JUMP JUMPDEST PUSH1 0x40 MLOAD DUP1 PUSH1 0x20 ADD PUSH1 0x40 MSTORE DUP1 PUSH1 0x0 DUP2 MSTORE POP SWAP1 JUMP INVALID MSTORE8 PUSH13 0x6964696E6757696E646F774F72 PUSH2 0x636C PUSH6 0x3A204D495353 0x49 0x4E SELFBALANCE 0x5F 0x48 0x49 MSTORE8 SLOAD 0x4F MSTORE 0x49 NUMBER COINBASE 0x4C 0x5F 0x4F TIMESTAMP MSTORE8 GASLIMIT MSTORE JUMP COINBASE SLOAD 0x49 0x4F 0x4E MSTORE8 PUSH13 0x6964696E6757696E646F774F72 PUSH2 0x636C PUSH6 0x3A20554E4558 POP GASLIMIT NUMBER SLOAD GASLIMIT DIFFICULTY 0x5F SLOAD 0x49 0x4D GASLIMIT 0x5F GASLIMIT 0x4C COINBASE POP MSTORE8 GASLIMIT DIFFICULTY SSTORE PUSH15 0x697377617056324C6962726172793A KECCAK256 0x49 DIFFICULTY GASLIMIT 0x4E SLOAD 0x49 NUMBER COINBASE 0x4C 0x5F COINBASE DIFFICULTY DIFFICULTY MSTORE GASLIMIT MSTORE8 MSTORE8 GASLIMIT MSTORE8 CHAINID PUSH10 0x786564506F696E743A20 0x4D SSTORE 0x4C SLOAD 0x49 POP 0x4C 0x49 NUMBER COINBASE SLOAD 0x49 0x4F 0x4E 0x5F 0x4F JUMP GASLIMIT MSTORE CHAINID 0x4C 0x4F JUMPI LOG2 PUSH5 0x6970667358 0x22 SLT KECCAK256 DUP14 0x1E 0xAB 0xDC 0xE5 0xB2 MOD PUSH32 0xD137EB119EA670308034D0426F72030F8D718889D06535B864736F6C63430006 0xC STOP CALLER MSTORE8 PUSH13 0x6964696E6757696E646F774F72 PUSH2 0x636C PUSH6 0x3A2057494E44 0x4F JUMPI 0x5F 0x4E 0x4F SLOAD 0x5F GASLIMIT JUMP GASLIMIT 0x4E 0x4C MSIZE 0x5F DIFFICULTY 0x49 JUMP 0x49 MSTORE8 0x49 TIMESTAMP 0x4C GASLIMIT "
		},
		"gasEstimates": {
			"creation": {
				"codeDepositCost": "655000",
				"executionCost": "infinite",
				"totalCost": "infinite"
			},
			"external": {
				"consult(address,uint256,address)": "infinite",
				"factory()": "infinite",
				"getAssetPrice(address)": "infinite",
				"granularity()": "infinite",
				"observationIndexOf(uint256)": "infinite",
				"pairObservations(address,uint256)": "3715",
				"periodSize()": "infinite",
				"update(address,address)": "infinite",
				"windowSize()": "infinite"
			}
		},
		"methodIdentifiers": {
			"consult(address,uint256,address)": "8c86f1e4",
			"factory()": "c45a0155",
			"getAssetPrice(address)": "b3596f07",
			"granularity()": "556f0dc7",
			"observationIndexOf(uint256)": "dbaad32f",
			"pairObservations(address,uint256)": "bfcc8e42",
			"periodSize()": "e4463eb2",
			"update(address,address)": "c640752d",
			"windowSize()": "8a14117a"
		}
	},
	"abi": [
		{
			"inputs": [
				{
					"internalType": "address",
					"name": "_tokenA",
					"type": "address"
				},
				{
					"internalType": "address",
					"name": "_collateral",
					"type": "address"
				},
				{
					"internalType": "uint256",
					"name": "_windowSize",
					"type": "uint256"
				},
				{
					"internalType": "uint8",
					"name": "_granularity",
					"type": "uint8"
				},
				{
					"internalType": "address",
					"name": "_factory",
					"type": "address"
				},
				{
					"internalType": "uint256",
					"name": "_decimals",
					"type": "uint256"
				}
			],
			"stateMutability": "nonpayable",
			"type": "constructor"
		},
		{
			"inputs": [
				{
					"internalType": "address",
					"name": "tokenIn",
					"type": "address"
				},
				{
					"internalType": "uint256",
					"name": "amountIn",
					"type": "uint256"
				},
				{
					"internalType": "address",
					"name": "tokenOut",
					"type": "address"
				}
			],
			"name": "consult",
			"outputs": [
				{
					"internalType": "uint256",
					"name": "amountOut",
					"type": "uint256"
				}
			],
			"stateMutability": "view",
			"type": "function"
		},
		{
			"inputs": [],
			"name": "factory",
			"outputs": [
				{
					"internalType": "address",
					"name": "",
					"type": "address"
				}
			],
			"stateMutability": "view",
			"type": "function"
		},
		{
			"inputs": [
				{
					"internalType": "address",
					"name": "_asset",
					"type": "address"
				}
			],
			"name": "getAssetPrice",
			"outputs": [
				{
					"internalType": "uint256",
					"name": "",
					"type": "uint256"
				}
			],
			"stateMutability": "view",
			"type": "function"
		},
		{
			"inputs": [],
			"name": "granularity",
			"outputs": [
				{
					"internalType": "uint8",
					"name": "",
					"type": "uint8"
				}
			],
			"stateMutability": "view",
			"type": "function"
		},
		{
			"inputs": [
				{
					"internalType": "uint256",
					"name": "timestamp",
					"type": "uint256"
				}
			],
			"name": "observationIndexOf",
			"outputs": [
				{
					"internalType": "uint8",
					"name": "index",
					"type": "uint8"
				}
			],
			"stateMutability": "view",
			"type": "function"
		},
		{
			"inputs": [
				{
					"internalType": "address",
					"name": "",
					"type": "address"
				},
				{
					"internalType": "uint256",
					"name": "",
					"type": "uint256"
				}
			],
			"name": "pairObservations",
			"outputs": [
				{
					"internalType": "uint256",
					"name": "timestamp",
					"type": "uint256"
				},
				{
					"internalType": "uint256",
					"name": "price0Cumulative",
					"type": "uint256"
				},
				{
					"internalType": "uint256",
					"name": "price1Cumulative",
					"type": "uint256"
				}
			],
			"stateMutability": "view",
			"type": "function"
		},
		{
			"inputs": [],
			"name": "periodSize",
			"outputs": [
				{
					"internalType": "uint256",
					"name": "",
					"type": "uint256"
				}
			],
			"stateMutability": "view",
			"type": "function"
		},
		{
			"inputs": [
				{
					"internalType": "address",
					"name": "tokenA",
					"type": "address"
				},
				{
					"internalType": "address",
					"name": "tokenB",
					"type": "address"
				}
			],
			"name": "update",
			"outputs": [],
			"stateMutability": "nonpayable",
			"type": "function"
		},
		{
			"inputs": [],
			"name": "windowSize",
			"outputs": [
				{
					"internalType": "uint256",
					"name": "",
					"type": "uint256"
				}
			],
			"stateMutability": "view",
			"type": "function"
		}
	]
}